:103800000C94531C0C948B1C0C94701C0C94701C0A
:103810000C94701C0C94701C0C94701C0C94701CF8
:103820000C94701C0C94701C0C94701C0C94701CE8
:103830000C94701C0C94701C0C94701C0C94701CD8
:103840000C94701C0C94701C0C94701C0C94701CC8
:103850000C94701C040309041C03770077007700A4
:103860002E00660069007300630068006C002E0083
:10387000640065000E0355005300420061007300B0
:10388000700012011001FF000008C016DC050201E3
:103890000102000109021200010100803209040046
:1038A00000000000000011241FBECFE5D8E0DEBFFD
:1038B000CDBF10E0A0E6B0E0E8E3F2E402C005907E
:1038C0000D92A636B107D9F710E0A6E6B0E001C028
:1038D0001D92AD39B107E1F70E94CD1D0C941A215C
:1038E0000C94001CA82FB92F80E090E041E050EA32
:1038F00060956F5F58F42D9138EF822797958795E3
:1039000010F0842795273F5FC8F3F3CF0895EADFCF
:103910008D939D930895CF93CFB7CF93DF93C395A6
:10392000849BE9F7849B0BC0849B09C0849B07C0E0
:10393000849B05C0849B03C0849B01C089C06F9396
:10394000C0918000DD27C957DF4F2F9365E5849B29
:1039500003C02F916F91E6CF0F931F934F9320E0F9
:1039600040E15F9300B3047104FB27F93F9350E0FB
:103970003BE039C0147140642F77012F53501EC0B3
:10398000406810B314712F7753501FC0406400B3C8
:103990002F770471D1F15350000023C0406210B35F
:1039A0002F77147191F15350000025C00471102736
:1039B000515012F45D5F0000115027952C3F10B359
:1039C000C8F614710127015027952C3FC8F64227ED
:1039D000499300B3047110274F73115027952C3F62
:1039E000A8F64695469510B3147179F00127015059
:1039F00027952C3F98F66B5A60F3315000B3B0F620
:103A000000C010E41ABF002717C03B503195C31BFC
:103A1000D04010E41ABF0881033CF9F00B34E9F000
:103A200020917E001981110F1213EDCF093651F14B
:103A30000D3211F0013E39F7009385003F915F91FF
:103A40004F911F910F912F916F91CAB7C6FD67CF0C
:103A5000DF91CF91CFBFCF91189520918500222380
:103A600069F310918300112339F534303AF1309322
:103A7000830020937F00109180003BE0311B309346
:103A800080001CC0009183000130B4F40AE530913D
:103A9000600034FD14C000936000C3E7D0E013C0A1
:103AA000052710E000C0000002BB1AC0052710E087
:103AB000221F1DC010E021C04AE502C032ED432F95
:103AC000C4E1D0E032E011B31461949A02B311BBA7
:103AD00054E120E865E320FF052702BB27951795F1
:103AE0001C3FF0F66695B8F7B1F720FF052702BB3B
:103AF000279517951C3FD0F62795179517FF052793
:103B000000001C3F02BBB0F629913A9519F70B7ED5
:103B100010918400110FC651D04002BB11F01093D8
:103B20007E0010E41ABF006111B31B7E402F4B7E54
:103B300054E05A95F1F702BB11BB42BB7FCF21E0A5
:103B400030E002C0220F331F8A95E2F7209525BB93
:103B500088E893E120E931E0F9013197F1F7019725
:103B6000D9F78FEF85BB88E893E120E931E0F901CF
:103B70003197F1F70197D9F7089587E090E00E9417
:103B80009F1D12BAF8941BBE15BE81E08BBF1BBEF1
:103B9000E0917100F091720009952F923F924F923F
:103BA0005F926F927F928F929F92AF92BF92CF92CD
:103BB000DF92EF92FF920F931F93CF93DF938FEFDC
:103BC00084BB85BB8DEF85BB88E893E120E931E0BC
:103BD000F9013197F1F70197D9F78FEF85BB88E8A5
:103BE00093E120E931E0F9013197F1F70197D9F735
:103BF00088E10FB6F89481BD11BC0FBE8BEF85BB79
:103C000088E893E120E931E0F9013197F1F7019774
:103C1000D9F78FEF85BB88E893E120E931E0F9011E
:103C20003197F1F70197D9F7979A04B601FE00C3CF
:103C300014BE87EF85BB88E893E120E931E0F90104
:103C40003197F1F70197D9F78FEF85BB88E893E1BA
:103C500020E931E0F9013197F1F70197D9F78FEEBB
:103C600085BB88E893E120E931E0F9013197F1F76C
:103C70000197D9F78FEF85BB88E893E120E931E020
:103C8000F9013197F1F70197D9F78FED85BB88E8F6
:103C900093E120E931E0F9013197F1F70197D9F784
:103CA0008FEF85BB88E893E120E931E0F901319796
:103CB000F1F70197D9F781E08BBF82E08BBF8FEEE0
:103CC00085BB88E893E120E931E0F9013197F1F70C
:103CD0000197D9F78FEF85BB88E893E120E931E0C0
:103CE000F9013197F1F70197D9F780B3809585BB3A
:103CF00080E29EE420E931E0F9013197F1F7019784
:103D0000D9F7879995C28BEF85BB88E893E120E9C5
:103D100031E0F9013197F1F70197D9F78FEF85BBC2
:103D200088E893E120E931E0F9013197F1F7019753
:103D3000D9F785B7836085BF8BB780648BBF8C9ABA
:103D400020E040EA5FE004C0A895CA010197F1F7BE
:103D50002150D1F78C987894FF2400E0C0E9D1E09D
:103D6000EE24EA9454E7C52E58E3D52E48E5A42E58
:103D700048E3B42E34E5832E38E3932E24E9622EF3
:103D800028E3722E92E8492E98E3592E86E6282ED3
:103D900080E0382E77EF75BB88E893E1FE0131971C
:103DA000F1F70197D9F7E5BA88E893E1FE01319779
:103DB000F1F70197D9F790918300935097FD77C160
:103DC00080918000ACE0B0E0A81BB109A957BF4FBB
:103DD00080917F008D3209F0ECC0983009F065C108
:103DE00083EC80937300EAE5E093600010926A0030
:103DF0003C91832F807611962C911197882309F49A
:103E000063C03092820020928100233091F5139696
:103E10002C9113971496EC91149712968C911297FB
:103E2000803331F4E370F0E0EE59FF4FE0811DC0C4
:103E3000803A49F48E2F922FE199FECF9FBB8EBB23
:103E4000E09AEDB312C0803C79F48E2F922F159634
:103E50002C911597E199FECF9FBB8EBB2DBB0FB662
:103E6000F894E29AE19A0FBEE0E0E093690094E0F2
:103E70008CC0253011F491E088C0822F84508630A8
:103E8000E0F412968D919C91139790936D0080931E
:103E90006C00293009F478C016968C91169780939F
:103EA0006E0015968C911597827080936F00209309
:103EB000700037FD70C02FEF70C0223009F064C071
:103EC000F1E0F0936B0060C012968C911297109203
:103ED0007C00222331F410927D002CE730E092E048
:103EE0004EC0253019F48093840046C02630A1F5D9
:103EF00013968C911397813029F45092820040924E
:103F0000810006C0823031F470928200609281009C
:103F100092E11EC08330D9F412968C9112978823B7
:103F200031F4909282008092810094E011C081303F
:103F300031F4B0928200A09281009CE109C08230ED
:103F400031F4D0928200C09281009EE001C090E0E6
:103F500080E480936A0019C0283019F426E830E024
:103F600009C0293019F48093860006C02A3021F454
:103F70002CE730E091E003C02CE730E090E0309394
:103F800082002093810001C090E017968C911797D2
:103F9000882339F00AC016962C9180E880936A0035
:103FA00005C016962C91291708F0292F209361003F
:103FB0007CC080916A0087FF78C080916E00592F85
:103FC000891708F4582F851B80936E0060E08823C2
:103FD00009F461E080917000873010F440E05EC029
:103FE000FD0116C080916C0090916D000196909338
:103FF0006D0080936C0001972081E199FECF31968E
:104000009FBB8EBB2DBB0FB6F894E29AE19A0FBE10
:104010008E2F8A1B851730F344C020916C0030919D
:104020006D00C9018F779070892B51F4F89473E07B
:10403000F90170935700E895789407B600FCFDCF1E
:104040004E5FF8948D919D9171E00C01F901709390
:104050005700E89511247894C901029690936D0059
:1040600080936C008F779070892B41F06623B1F0BC
:104070004517A0F080916F00882381F0F89485E0C7
:10408000F90180935700E895789407B600FCFDCFBE
:10409000F894E1E1E0935700E8957894451708F427
:1040A000BCCF662311F010926100109283008091C2
:1040B000600084FF82C0809161008F3F09F47DC061
:1040C000182F893008F018E0811B809361008091DF
:1040D000730098E8892780937300112309F45CC06A
:1040E00080916A0087FF2FC080916E00811708F4CD
:1040F000182F811B80936E00A4E7B0E0412F50E0A1
:104100004A0F5B1F1CC08091700020916C003091A1
:104110006D00873038F0E199FECF3FBB2EBBE09AAF
:104120008DB302C0F90184918C93119680916C003B
:1041300090916D00019690936D0080936C00A41790
:10414000B50709F727C0209181003091820086FFD2
:104150000DC0A4E7B0E080E090E0F901E80FF91F9E
:10416000E491ED9301961817C1F708C0D901912F7A
:10417000E4E7F0E08D9181939150E1F71150812FA8
:1041800090E01F5F0196820F931F909382008093AF
:10419000810002C0193060F484E790E0612F0E9432
:1041A000871C612F6C5F6C3031F0E092610003C0BE
:1041B000E09261006EE16093600094E180B38471ED
:1041C00031F49150D9F71092840010927E008FEE56
:1041D00085BB88E893E1FE013197F1F70197D9F7A4
:1041E000E5BA88E893E1FE013197F1F70197D9F735
:1041F00080916B00882321F0FA9411F4015011F0A2
:10420000879BC8CD87EF85BB88E893E120E931E043
:10421000F9013197F1F70197D9F78FEF85BB88E85E
:1042200093E120E931E0F9013197F1F70197D9F7EE
:084230000E94BD1DF894FFCFB0
:064238005AFF1E95020072
:0400000300003800C1
:00000001FF
