:103800000C94531C0C948B1C0C94701C0C94701C0A
:103810000C94701C0C94701C0C94701C0C94701CF8
:103820000C94701C0C94701C0C94701C0C94701CE8
:103830000C94701C0C94701C0C94701C0C94701CD8
:103840000C94701C0C94701C0C94701C0C94701CC8
:103850000C94701C040309041C03770077007700A4
:103860002E00660069007300630068006C002E0083
:10387000640065000E0355005300420061007300B0
:10388000700012011001FF000008C016DC050201E3
:103890000102000109021200010100803209040046
:1038A00000000000000011241FBECFE5D8E0DEBFFD
:1038B000CDBF11E0A0E6B0E0ECE4FEE402C005906C
:1038C0000D92AE36B107D9F711E0AEE6B1E001C016
:1038D0001D92A53AB107E1F70E945A1E0C942427C5
:1038E0000C94001CA82FB92F80E090E041E050EA32
:1038F00060956F5F58F42D9138EF822797958795E3
:1039000010F0842795273F5FC8F3F3CF0895EADFCF
:103910008D939D930895CF93CFB7CF93DF93C395A6
:10392000869BE9F7869B0BC0869B09C0869B07C0D8
:10393000869B05C0869B03C0869B01C089C06F9390
:10394000C0918801DD27C157DE4F2F9365E5869B27
:1039500003C02F916F91E6CF0F931F934F9320E0F9
:1039600040E15F9300B3047406FB27F93F9350E0F6
:103970003BE039C0147440642F77012F53501EC0B0
:10398000406810B314742F7753501FC0406400B3C5
:103990002F770474D1F15350000023C0406210B35C
:1039A0002F77147491F15350000025C00474102730
:1039B000515012F45D5F0000115027952C3F10B359
:1039C000C8F614740127015027952C3FC8F64227EA
:1039D000499300B3047410274F73115027952C3F5F
:1039E000A8F64695469510B3147479F00127015056
:1039F00027952C3F98F66B5A60F3315000B3B0F620
:103A000000C010E41ABF002717C03B503195C31BFC
:103A1000D04010E41ABF0881033CF9F00B34E9F000
:103A2000209186011981110F1213EDCF093651F142
:103A30000D3211F0013E39F700938D013F915F91F6
:103A40004F911F910F912F916F91CAB7C6FD67CF0C
:103A5000DF91CF91CFBFCF91189520918D01222377
:103A600069F310918B01112339F534303AF1309319
:103A70008B0120938701109188013BE0311B30932B
:103A800088011CC000918B010130B4F40AE530912B
:103A9000600034FD14C000936000CBE7D1E013C098
:103AA000052710E000C0000002BB1AC0052710E087
:103AB000221F1DC010E021C04AE502C032ED432F95
:103AC000C4E1D0E032E011B31464969A02B311BBA2
:103AD00054E420E865E320FF052702BB27951795EE
:103AE0001C3FF0F66695B8F7B1F720FF052702BB3B
:103AF000279517951C3FD0F62795179517FF052793
:103B000000001C3F02BBB0F629913A9519F70B7BD8
:103B100010918C01110FC651D04002BB11F01093CF
:103B2000860110E41ABF006411B31B7B402F4B7B4E
:103B300054E05A95F1F702BB11BB42BB7FCF2F92E5
:103B40003F924F925F926F927F928F929F92AF922D
:103B5000BF92CF92DF92EF92FF920F931F93CF937A
:103B6000DF932C01C0E0D0E03B01882477FC8094F7
:103B7000982C80E9282E81E0382E73C0C401B3014F
:103B80000E9446245B016C0120E030E04AE755E4E6
:103B90000E94BC227B018C0120E030E040E85FE322
:103BA0000E94162488231CF461E070E022C0C80142
:103BB000B70120E03FEF4FE757E40E94B623181605
:103BC000A4F4C601B50120E030E040E251E40E94D7
:103BD000BC220E94E62005C0C1010197F1F76150A7
:103BE000704061157105C1F707C0C801B7010E9497
:103BF000E620CB010197F1F7939AC801B70120E0C5
:103C000030E040E85FE30E94162488231CF461E062
:103C100070E022C0C801B70120E03FEF4FE757E452
:103C20000E94B6231816A4F4C601B50120E030E0C6
:103C300040E251E40E94BC220E94E62005C0C1017E
:103C40000197F1F76150704061157105C1F707C028
:103C5000C801B7010E94E620CB010197F1F79398C4
:103C60002196C415D5050CF489CFDF91CF911F9112
:103C70000F91FF90EF90DF90CF90BF90AF909F900B
:103C80008F907F906F905F904F903F902F9008950E
:103C90008AE090E06FEF70E00E949F1D12BAF894E6
:103CA0001BBE15BE81E08BBF1BBEE0917901F09178
:103CB0007A0109952F923F924F925F926F927F9275
:103CC0008F929F92AF92BF92CF92DF92EF92FF922C
:103CD0000F931F93DF93CF9300D0CDB7DEB78B9AAE
:103CE00084E690E06AE070E00E949F1D8AE090E028
:103CF00064E670E00E949F1D84E690E06AE070E058
:103D00000E949F1D88E10FB6F89481BD11BC0FBEC3
:103D1000919A04B601FE58C214BE81E08BBF82E0C6
:103D20008BBF819951C285B7836085BF8BB7806493
:103D30008BBF8E9A20E040EA5FE004C0A895CA01DC
:103D40000197F1F72150D1F78E987894EE24FF2453
:103D50006CE0262E312C54E7A52E58E3B52E48E50D
:103D6000842E48E3942E34E5632E38E3732E24E941
:103D7000422E28E3522E9EE6C92E91E0D92E909134
:103D80008B01935097FD79C180918801D101A81BC7
:103D9000B109A157BE4F809187018D3209F0ECC067
:103DA000983009F068C143EC40937B018AE5809329
:103DB0006000109272013C91832F807611962C91B5
:103DC0001197882309F462C0D0928A01C0928901B8
:103DD000233091F513962C9113971496EC91149728
:103DE00012968C911297803331F4E370F0E0EE5923
:103DF000FF4FE0811DC0803A49F48E2F922FE19948
:103E0000FECF9FBB8EBBE09AEDB312C0803C79F42D
:103E10008E2F922F15962C911597E199FECF9FBB6F
:103E20008EBB2DBB0FB6F894E29AE19A0FBEE0E08C
:103E3000E093710194E08DC0253011F491E089C0C8
:103E4000822F84508630D8F412968D919C911397CE
:103E50009093750180937401293009F479C0169606
:103E60009C9116979093760115968C918270809311
:103E700077012093780137FD72C02FEF71C0223097
:103E800009F066C091E09093730162C012968C9124
:103E9000129710928401222331F41092850124E8B4
:103EA00031E092E050C0253019F480938C0148C075
:103EB0002630B1F513968C911397813039F4E2E8EE
:103EC000F8E3F0938A01E093890106C0823031F46F
:103ED00050928A014092890192E11EC08330D9F448
:103EE00012968C911297882331F470928A01609215
:103EF000890194E011C0813031F490928A0180925E
:103F000089019CE109C0823031F4B0928A01A0920B
:103F100089019EE001C090E0F0E4F093720119C0C5
:103F2000283019F42EE831E009C0293019F48093C3
:103F30008E0106C02A3021F424E831E091E003C06C
:103F400024E831E090E030938A012093890101C098
:103F500090E017968C911797882331F009C0292F8C
:103F600080E88093720105C016962C91291708F0FD
:103F7000292F209361007FC08091720187FF7BC051
:103F800080917601692F891708F4682F861B80932A
:103F9000760110E0882309F411E0809178014091C6
:103FA000740150917501873028F4009177019A01CE
:103FB00070E056C0FD019A010EC08081E199FECFEC
:103FC00031963FBB2EBB8DBB0FB6F894E29AE19AB7
:103FD0000FBE2F5F3F4F8E2F8A1B861770F3460F41
:103FE000511D509375014093740141C0C9018F77F1
:103FF0009070892B51F4F89443E0F90140935700F5
:10400000E895789407B600FCFDCF7E5FF8948D911B
:104010009D9141E00C01F90140935700E89511246E
:104020007894A9014E5F5F4FCA018F779070892BFA
:1040300031F01123A1F0761790F0002381F0F8946D
:1040400085E0F90180935700E895789407B600FC65
:10405000FDCFF89491E190935700E89578949A01F8
:10406000761708F4C3CF30937501209374011123A0
:1040700011F01092610010928B018091600084FF1A
:104080008FC0809161008F3F09F48AC0182F89305A
:1040900008F018E0811B8093610080917B0198E813
:1040A000892780937B01112309F467C080917201F5
:1040B00087FF34C080917601811708F4182F811B87
:1040C0008093760160917401709175019B01ECE71A
:1040D000F1E0FA83E983412F50E0DA01AE0FBF1F10
:1040E00017C080917801873038F0E199FECF3FBB4F
:1040F0002EBBE09A8DB302C0F9018491E981FA8167
:10410000808389819A8101969A8389832F5F3F4FAB
:10411000E981FA81EA17FB0721F727C0209189017D
:1041200030918A0186FF0DC0ACE7B1E080E090E0FD
:10413000F901E80FF91FE491ED9301961817C1F703
:1041400008C0D901912FECE7F1E08D918193915056
:10415000E1F71150812F90E01F5F0196820F931FAE
:1041600090938A018093890108C0460F571F50938E
:10417000750140937401193068F48CE791E0612F68
:104180000E94871C612F6C5F6C3041F08FEF809331
:10419000610004C08FEF809361006EE16093600066
:1041A00094E180B3847431F49150D9F710928C016A
:1041B0001092860180917301882321F0EA9411F412
:1041C000FA9411F0819BDBCD0E94481EEF92FF9282
:1041D0000F931F937B018C0120E030E040E05FE40F
:1041E0000E94E62388238CF0C801B70120E030E06C
:1041F00040E05FE40E945E220E94A4249B01AC0187
:10420000205030404040504806C0C801B7010E94CD
:10421000A4249B01AC01B901CA011F910F91FF9029
:10422000EF900895A0E0B0E0E8E1F1E20C94ED2613
:10423000DC012B01FA019C91923008F439C1EB01A9
:104240008881823008F433C1943069F4843009F0F5
:104250002FC111969C9111978981981709F428C153
:10426000A6E6B0E025C1843009F421C18230A9F46A
:10427000923009F01DC19A01AD0188E0EA01099070
:10428000AE01E90109929E018150C1F7E2018981E5
:1042900011969C918923818308C1923009F407C14A
:1042A00012962D903C901397EB018A819B81149676
:1042B000AD90BD90CD90DC901797EC80FD800E8185
:1042C0001F819101281B390BB90137FF04C06627F4
:1042D0007727621B730B603271050CF061C01216F8
:1042E00013066CF537014801062E04C09694879496
:1042F000779467940A94D2F721E030E040E050E0F0
:1043000004C0220F331F441F551F6A95D2F7215056
:104310003040404050402E213F2140235123211561
:1043200031054105510521F021E030E040E050E049
:1043300079018A01E628F728082919293CC0232B8E
:10434000D1F1260E371E35014601062E04C0969483
:104350008794779467940A94D2F721E030E040E0A4
:1043600050E004C0220F331F441F551F6A95D2F737
:1043700021503040404050402A213B214C215D21BA
:10438000211531054105510521F021E030E040E0E3
:1043900050E059016A01A628B728C828D9280BC0BF
:1043A000821593052CF01C01AA24BB24650103C0CF
:1043B000EE24FF24870111969C91D20111968C91D5
:1043C000981709F445C0992339F0A80197012A19D3
:1043D0003B094C095D0906C0A60195012E193F094C
:1043E000400B510B57FD08C0118233822282248377
:1043F0003583468357831DC081E0818333822282C7
:1044000088279927DC01821B930BA40BB50B8483AF
:104410009583A683B7830DC0220F331F441F551FFA
:1044200024833583468357838281938101979383C5
:1044300082832481358146815781DA01C901019740
:10444000A109B1098F5F9F4FAF4FBF4328F30BC046
:10445000918333822282EA0CFB1C0C1D1D1DE48219
:10446000F5820683178383E080832481358146812A
:10447000578157FF1AC0C901AA2797FDA095BA2FE7
:1044800081709070A070B0705695479537952795BC
:10449000822B932BA42BB52B84839583A683B78380
:1044A00082819381019693838283DF0101C0D201CF
:1044B000CD01CDB7DEB7E2E10C940927A0E2B0E070
:1044C000E4E6F2E20C94F92669837A838B839C8379
:1044D0002D833E834F835887E9E0EE2EF12CEC0EBE
:1044E000FD1ECE010196B7010E941C268E010F5EB3
:1044F0001F4FCE010596B8010E941C268A8991E0C3
:1045000089278A8BC701B801AE01475E5F4F0E94C1
:1045100012210E944725A096E6E00C941527A0E200
:10452000B0E0E5E9F2E20C94F92669837A838B83A3
:104530009C832D833E834F835887F9E0EF2EF12C27
:10454000EC0EFD1ECE010196B7010E941C268E01C5
:104550000F5E1F4FCE010596B8010E941C26C701B1
:10456000B801AE01475E5F4F0E9412210E944725AD
:10457000A096E6E00C941527A0E2B0E0E2ECF2E2AF
:104580000C94ED2669837A838B839C832D833E83F1
:104590004F835887CE010196BE01675F7F4F0E940F
:1045A0001C26CE010596BE016F5E7F4F0E941C2621
:1045B0009985923088F089898230C8F0943019F456
:1045C000823051F404C0843029F4923081F486E6BC
:1045D00090E0C6C0923049F420E09A858A89981309
:1045E00021E02A87CE010996BBC0823049F420E041
:1045F0009A858A89981321E02A8BCE014196B0C012
:104600002D843E844F8458886D887E888F88988C4E
:10461000EE24FF248701AA24BB24650140E050E07A
:1046200060E070E0E0E0F0E0C10181709070892B03
:10463000E9F0E60CF71C081D191D9A01AB012A0DC3
:104640003B1D4C1D5D1D80E090E0A0E0B0E0E61455
:10465000F7040805190520F481E090E0A0E0B0E03F
:10466000BA01A901480F591F6A1F7B1FAA0CBB1C66
:10467000CC1CDD1C97FE08C081E090E0A0E0B0E01B
:10468000A82AB92ACA2ADB2A3196E032F10549F074
:10469000660C771C881C991C569447943794279471
:1046A000C3CFFA85EA892B893C898B859C85280FA5
:1046B000391F2E5F3F4F17C0CA0181709070892B40
:1046C00061F016950795F794E79480E090E0A0E0FC
:1046D000B0E8E82AF92A0A2B1B2B7695679557959F
:1046E00047952F5F3F4F77FDE7CF0CC0440F551F15
:1046F000661F771F17FD4160EE0CFF1C001F111F86
:1047000021503040403090E0590790E0690790E434
:10471000790760F32B8F3C8FDB01CA018F77907094
:10472000A070B07080349105A105B10561F447FD1A
:104730000AC0E114F1040105110529F0405C5F4F46
:104740006F4F7F4F40781A8EFE1711F081E08A8FED
:104750004D8F5E8F6F8F78A383E0898FCE0149964E
:104760000E944725A096E2E10C940927A8E1B0E059
:10477000ECEBF3E20C94F92669837A838B839C83B8
:104780002D833E834F83588789E0E82EF12CEC0E71
:10479000FD1ECE010196B7010E941C268E010F5E00
:1047A0001F4FCE010596B8010E941C2689858230D4
:1047B00040F08989823028F0C701B8010E94942610
:1047C00001C08FEF6896E6E00C941527A8E1B0E0F1
:1047D000ECEEF3E20C94F92669837A838B839C8355
:1047E0002D833E834F83588789E0E82EF12CEC0E11
:1047F000FD1ECE010196B7010E941C268E010F5EA0
:104800001F4FCE010596B8010E941C268985823073
:1048100040F08989823028F0C701B8010E949426AF
:1048200001C08FEF6896E6E00C941527A8E1B0E090
:10483000ECE1F4E20C94F92669837A838B839C8300
:104840002D833E834F83588789E0E82EF12CEC0EB0
:10485000FD1ECE010196B7010E941C268E010F5E3F
:104860001F4FCE010596B8010E941C268985823013
:1048700040F08989823028F0C701B8010E9494264F
:1048800001C081E06896E6E00C941527A8E0B0E04E
:10489000ECE4F4E20C94F6269B01AC0183E08983FE
:1048A000DA01C9018827B7FD83959927AA27BB2775
:1048B000B82E211531054105510519F482E089838F
:1048C0003AC08823A9F0203080E0380780E048070C
:1048D00080E8580729F460E070E080E09FEC30C089
:1048E000EE24FF248701E21AF30A040B150B02C021
:1048F00079018A018EE1C82ED12CDC82CB82ED8237
:10490000FE820F831887C801B7010E94F82401971F
:104910001816190684F4082E04C0EE0CFF1C001FA4
:10492000111F0A94D2F7ED82FE820F831887C81AEE
:10493000D90ADC82CB82BA82CE0101960E94472539
:104940002896E9E00C941227ACE0B0E0EAEAF4E241
:104950000C94FD2669837A838B839C83CE01019618
:10496000BE016B5F7F4F0E941C268D81823061F1FA
:10497000823050F1843021F48E81882351F12EC091
:104980002F81388537FD20C06E812F3131051CF015
:104990006623F9F023C08EE190E0821B930B2985FA
:1049A0003A854B855C8504C0569547953795279584
:1049B0008A95D2F76623B1F05095409530952195B0
:1049C0003F4F4F4F5F4F0EC020E030E040E050E0DF
:1049D00009C02FEF3FEF4FEF5FE704C020E030E06A
:1049E00040E050E8B901CA012C96E2E00C94192786
:1049F000EF92FF920F931F937B018C0180E0E816EA
:104A000080E0F80681E0080780E0180788F48FEF5F
:104A1000E816F1040105110531F028F088E090E076
:104A2000A0E0B0E017C080E090E0A0E0B0E012C0ED
:104A300080E0E81680E0F80680E0080781E01807CB
:104A400028F088E190E0A0E0B0E004C080E190E0D0
:104A5000A0E0B0E020E230E040E050E0281B390B5D
:104A60004A0B5B0B04C016950795F794E7948A955B
:104A7000D2F7F701E259FF4F8081281B3109410924
:104A80005109C9011F910F91FF90EF900895DF9296
:104A9000EF92FF920F931F93FC01E480F580068153
:104AA0001781D1808081823048F480E090E0A0E1DD
:104AB000B0E0E82AF92A0A2B1B2BA5C0843009F4A0
:104AC0009FC0823021F4EE24FF24870105C0E11449
:104AD000F1040105110519F4E0E0F0E096C06281EF
:104AE00073819FEF623879070CF05BC022E83FEFDB
:104AF000261B370B2A3131052CF020E030E040E056
:104B000050E02AC0B801A701022E04C0769567952F
:104B1000579547950A94D2F781E090E0A0E0B0E085
:104B200004C0880F991FAA1FBB1F2A95D2F70197AF
:104B3000A109B1098E219F21A023B1230097A105CE
:104B4000B10521F081E090E0A0E0B0E09A01AB0176
:104B5000282B392B4A2B5B2BDA01C9018F779070F8
:104B6000A070B07080349105A105B10539F427FF1C
:104B700009C0205C3F4F4F4F5F4F04C0215C3F4F47
:104B80004F4F5F4FE0E0F0E02030A0E03A07A0E0B8
:104B90004A07A0E45A0710F0E1E0F0E079018A0149
:104BA00027C06038710564F5FB01E158FF4FD8015B
:104BB000C7018F779070A070B07080349105A10507
:104BC000B10539F4E7FE0DC080E490E0A0E0B0E06C
:104BD00004C08FE390E0A0E0B0E0E80EF91E0A1FE9
:104BE0001B1F17FF05C016950795F794E79431969C
:104BF00087E016950795F794E7948A95D1F705C055
:104C0000EE24FF248701EFEFF0E06E2F6795662713
:104C10006795902F9F77D794DD24D7948E2F869514
:104C2000492F462B582F5D29B701CA011F910F91BB
:104C3000FF90EF90DF900895FC01DB0140815181EE
:104C40002281622F6F7770E0221F2227221F93811B
:104C5000892F880F822B282F30E0991F9927991FC1
:104C600011969C93119721153105A9F54115510510
:104C70006105710511F482E037C082E89FEF139659
:104C80009C938E9312979A01AB0167E0220F331F1A
:104C9000441F551F6A95D1F783E08C930DC0220FF6
:104CA000331F441F551F12968D919C9113970197A6
:104CB00013969C938E931297203080E0380780E003
:104CC000480780E4580758F314962D933D934D936D
:104CD0005C93179708952F3F310579F441155105DD
:104CE0006105710519F484E08C93089564FF03C095
:104CF00081E08C9312C01C9210C02F573040139645
:104D00003C932E93129783E08C9387E0440F551FBA
:104D1000661F771F8A95D1F7706414964D935D9343
:104D20006D937C93179708951F93DC01FB019C9171
:104D3000923008F447C08081823008F443C0943038
:104D400051F411961C91843099F58181682F70E09F
:104D5000611B71093FC0843021F0923031F4823000
:104D6000B9F18181882389F12DC011961C91119789
:104D70008230F1F081811817D9F412962D913C916F
:104D80001397828193818217930794F0281739072C
:104D9000BCF014968D919D910D90BC91A02D248115
:104DA000358146815781281739074A075B0718F470
:104DB000112341F00AC082179307A407B50740F4F6
:104DC000112319F061E070E005C06FEF7FEF02C0C2
:104DD00060E070E0CB011F9108952F923F924F92B7
:104DE0005F926F927F928F929F92AF92BF92CF927B
:104DF000DF92EF92FF920F931F93CF93DF93CDB784
:104E0000DEB7CA1BDB0B0FB6F894DEBF0FBECDBFFB
:104E100009942A88398848885F846E847D848C84CC
:104E20009B84AA84B984C884DF80EE80FD800C81D5
:104E30001B81AA81B981CE0FD11D0FB6F894DEBFB8
:0C4E40000FBECDBFED010895F894FFCF28
:104E4C005AFF1E9502000000000000000000000147
:104E5C00020203030303040404040404040405050C
:104E6C0005050505050505050505050505050606E4
:104E7C0006060606060606060606060606060606C6
:104E8C0006060606060606060606060606060707B4
:104E9C000707070707070707070707070707070796
:104EAC000707070707070707070707070707070786
:104EBC000707070707070707070707070707070776
:104ECC000707070707070707070707070707080864
:104EDC000808080808080808080808080808080846
:104EEC000808080808080808080808080808080836
:104EFC000808080808080808080808080808080826
:104F0C000808080808080808080808080808080815
:104F1C000808080808080808080808080808080805
:104F2C0008080808080808080808080808080808F5
:104F3C0008080808080808080808080808080808E5
:0E4F4C000808080808080808080808080808E7
:0400000300003800C1
:00000001FF
