:107000000C9453380C948B380C9470380C94703862
:107010000C9470380C9470380C9470380C94703850
:107020000C9470380C9470380C9470380C94703840
:107030000C9470380C9470380C9470380C94703830
:107040000C9470380C9470380C9470380C94703820
:107050000C947038040309041C0377007700770050
:107060002E00660069007300630068006C002E004B
:10707000640065000E035500530042006100730078
:10708000700012011001FF000008C016DC050201AB
:10709000010200010902120001010080FA09040046
:1070A00000000000000011241FBECFE5D8E0DEBFC5
:1070B000CDBF10E0A0E6B0E0ECEAF8E702C0059032
:1070C0000D92A636B107D9F710E0A6E6B0E001C0F0
:1070D0001D92AD39B107E1F70E94CD390C94543CB3
:1070E0000C940038A82FB92F80E090E041E050EADE
:1070F00060956F5F58F42D9138EF822797958795AB
:1071000010F0842795273F5FC8F3F3CF0895EADF97
:107110008D939D930895CF93CFB7CF93DF93C3956E
:10712000869BE9F7869B0BC0869B09C0869B07C0A0
:10713000869B05C0869B03C0869B01C089C06F9358
:10714000C0918000DD27C957DF4F2F9365E5869BEF
:1071500003C02F916F91E6CF0F931F934F9320E0C1
:1071600040E15F9300B3047406FB27F93F9350E0BE
:107170003BE039C0147440642F77012F53501EC078
:10718000406810B314742F7753501FC0406400B38D
:107190002F770474D1F15350000023C0406210B324
:1071A0002F77147491F15350000025C004741027F8
:1071B000515012F45D5F0000115027952C3F10B321
:1071C000C8F614740127015027952C3FC8F64227B2
:1071D000499300B3047410274F73115027952C3F27
:1071E000A8F64695469510B3147479F0012701501E
:1071F00027952C3F98F66B5A60F3315000B3B0F6E8
:1072000000C010E41ABF002717C03B503195C31BC4
:10721000D04010E41ABF0881033CF9F00B34E9F0C8
:1072200020917E001981110F1213EDCF093651F113
:107230000D3211F0013E39F7009385003F915F91C7
:107240004F911F910F912F916F91CAB7C6FD67CFD4
:10725000DF91CF91CFBFCF91189520918500222348
:1072600069F310918300112339F534303AF13093EA
:10727000830020937F00109180003BE0311B30930E
:1072800080001CC0009183000130B4F40AE5309105
:10729000600034FD14C000936000C3E7D0E013C069
:1072A000052710E000C0000002BB1AC0052710E04F
:1072B000221F1DC010E021C04AE502C032ED432F5D
:1072C000C4E1D0E032E011B31464969A02B311BB6A
:1072D00054E420E865E320FF052702BB27951795B6
:1072E0001C3FF0F66695B8F7B1F720FF052702BB03
:1072F000279517951C3FD0F62795179517FF05275B
:1073000000001C3F02BBB0F629913A9519F70B7BA0
:1073100010918400110FC651D04002BB11F01093A0
:107320007E0010E41ABF006411B31B7B402F4B7B1F
:1073300054E05A95F1F702BB11BB42BB7FCF8B9A49
:1073400093980895939A80ED97E020E931E0F90150
:107350003197F1F70197D9F720E040E951E0939890
:1073600088EC90E0FA013197F1F70197D9F7939AF9
:1073700088EC90E0FA013197F1F70197D9F72F5F88
:10738000243169F788E097E020E931E0F90131978D
:10739000F1F70197D9F7939808952F923F924F9262
:1073A0005F926F927F928F929F92AF92BF92CF9295
:1073B000DF92EF92FF920F931F93DF93CF9300D052
:1073C000CDB7DEB788E10FB6F89481BD11BC0FBE12
:1073D0008B9A93980E94A2398BEF81BB12BA919A33
:1073E00014BE81E08BBF82E08BBF819951C28E9A1F
:1073F00020E040EA5FE004C0A895CA010197F1F7D8
:107400002150D1F78E9885B7836085BF8BB7806494
:107410008BBF7894EE24FF245CE0252E312C44E7CA
:10742000A42E40E7B42E38E5832E30E7932E24E5D2
:10743000622E20E7722E94E9492E90E7592E86E6B7
:10744000C82E80E0D82E90918300935097FD79C18B
:1074500080918000D101A81BB109A957BF4F80912D
:107460007F008D3209F0ECC0983009F068C143EC20
:10747000409373008AE58093600010926A003C910B
:10748000832F807611962C911197882309F462C07E
:10749000D0928200C0928100233091F513962C91F6
:1074A00013971496EC91149712968C91129780333F
:1074B00031F4E370F0E0EE59FF4FE0811DC0803AF7
:1074C00049F48E2F922FE199FECF9FBB8EBBE09A9D
:1074D000EDB312C0803C79F48E2F922F15962C912B
:1074E0001597E199FECF9FBB8EBB2DBB0FB6F894CD
:1074F000E29AE19A0FBEE0E0E093690094E08DC06B
:10750000253011F491E089C0822F84508630D8F460
:1075100012968D919C91139790936D0080936C00BF
:10752000293009F479C016969C91169790936E00B5
:1075300015968C91827080936F002093700037FDB8
:1075400072C02FEF71C0223009F066C091E09093B5
:107550006B0062C012968C91129710927C002223CD
:1075600031F410927D002CE730E092E050C02530DD
:1075700019F48093840048C02630B1F513968C919D
:107580001397813039F4E2E8F0E7F0938200E0935A
:10759000810006C0823031F4509282004092810016
:1075A00092E11EC08330D9F412968C9112978823F1
:1075B00031F4709282006092810094E011C08130B9
:1075C00031F490928200809281009CE109C0823067
:1075D00031F4B0928200A09281009EE001C090E060
:1075E000F0E4F0936A0019C0283019F426E830E07E
:1075F00009C0293019F48093860006C02A3021F48E
:107600002CE730E091E003C02CE730E090E03093CD
:1076100082002093810001C090E017968C9117970B
:10762000882331F009C0292F80E880936A0005C0C3
:1076300016962C91291708F0292F209361007FC0FE
:1076400080916A0087FF7BC080916E00692F891747
:1076500008F4682F861B80936E0010E0882309F4DD
:1076600011E08091700040916C0050916D00873066
:1076700028F400916F009A0170E056C0FD019A0154
:107680000EC08081E199FECF31963FBB2EBB8DBBF2
:107690000FB6F894E29AE19A0FBE2F5F3F4F8E2FFC
:1076A0008A1B861770F3460F511D50936D0040934F
:1076B0006C0041C0C9018F779070892B51F4F89408
:1076C00043E0F90140935700E895789407B600FC31
:1076D000FDCF7E5FF8948D919D9141E00C01F90101
:1076E00040935700E89511247894A9014E5F5F4FAD
:1076F000CA018F779070892B31F01123A1F0761792
:1077000090F0002381F0F89485E0F9018093570010
:10771000E895789407B600FCFDCFF89491E190933A
:107720005700E89578949A01761708F4C3CF309300
:107730006D0020936C00112311F0109261001092E3
:1077400083008091600084FF8FC0809161008F3F33
:1077500009F48AC0182F893008F018E0811B809343
:1077600061008091730098E889278093730011234A
:1077700009F467C080916A0087FF34C080916E0071
:10778000811708F4182F811B80936E0060916C00A4
:1077900070916D009B01E4E7F0E0FA83E983412FEB
:1077A00050E0DA01AE0FBF1F17C080917000873024
:1077B00038F0E199FECF3FBB2EBBE09A8DB302C0FB
:1077C000F9018491E981FA81808389819A81019606
:1077D0009A8389832F5F3F4FE981FA81EA17FB077C
:1077E00021F727C0209181003091820086FF0DC0D3
:1077F000A4E7B0E080E090E0F901E80FF91FE49120
:10780000ED9301961817C1F708C0D901912FE4E74D
:10781000F0E08D9181939150E1F71150812F90E02C
:107820001F5F0196820F931F9093820080938100C7
:1078300008C0460F571F50936D0040936C001930DD
:1078400068F484E790E0612F0E948738612F6C5FB5
:107850006C3041F08FEF8093610004C08FEF809314
:1078600061006EE16093600094E180B3847431F450
:107870009150D9F71092840010927E0080916B0095
:10788000882321F0EA9411F4FA9411F0819BDBCD66
:1078900012BAF8941BBE15BE81E08BBF1BBEE091EF
:0C78A0007100F09172000995F894FFCF80
:0678AC005AFF1E950200C8
:040000030000700089
:00000001FF
