:100000000C9457000C9498010C9474000C94740098
:100010000C9474000C9474000C9474000C94740090
:100020000C9474000C9474000C9474000C94740080
:100030000C9474000C9474000C9474000C94740070
:100040000C9474000C9474000C9474000C94740060
:100050000C947400040309041A03770077007700F6
:100060002E006F0062006400650076002E006100C3
:100070007400180350006F00770065007200530091
:100080007700690074006300680012011001FF002E
:100090000008C016DC05000101020001090212007F
:1000A000010100400A0904000000000000001124C2
:1000B0001FBECFE5D8E0DEBFCDBF10E0A0E6B0E0C8
:1000C000E4EBF7E002C005900D92A236B107D9F734
:1000D00010E0A2E6B0E001C01D92A839B107E1F737
:1000E0000E9465030C94D8030C94000085B78360CC
:1000F00085BF8BB780648BBF08950F931F93CF93F9
:10010000DF9390917E0019160CF09CC020917B002B
:1001100080917A008D3209F08BC08AE5809361006E
:100120009B3009F085C0CCE0D0E0C21BD109CE578E
:10013000DF4F9881892F807609F06BC0109277008D
:100140008981882381F49F7119F481E0809377007D
:100150001092780087E790E090937D0080937C0078
:1001600090E822E05EC0853021F48A8180937F0090
:1001700045C08630B1F58B81813019F48AE890E072
:1001800004C0823049F48CE990E090937D00809324
:100190007C0090EC22E145C0833009F040C08A81A8
:1001A000882349F484E590E090937D0080937C005F
:1001B00090EC24E036C0813049F488E590E09093DB
:1001C0007D0080937C0090EC2AE12BC0823039F5D1
:1001D00082E790E090937D0080937C0090EC28E192
:1001E00020C0883019F481E890E00CC0893021F4F7
:1001F0008A818093810002C08A3011F090E810C09B
:1002000087E790E090937D0080937C0090E821E068
:1002100008C0CE010E94E702282F90E802C090ECAF
:1002200020E08F81882339F48E81821728F003C063
:1002300090E880E001C0822F90936200809360007C
:1002400010927E008091610084FF4AC0809160001E
:100250008F3F09F445C0182F893008F018E0811B42
:10026000809360008091620080FD02C00BE401C0B9
:1002700003EC8F5F8093620020917C0030917D00C1
:1002800086FD05C0D901912FEFE6F0E011C0AFE681
:10029000B0E080E090E006C0F901E80FF91FE491BA
:1002A000ED9301961817C1F705C08D918193915078
:1002B0009923D9F7F901E10FF11DF0937D00E09347
:1002C0007C008FE690E0612F0E949401183019F0B5
:1002D0008FEF8093600000936E001C5F10936100AD
:1002E0009AE080B3847131F49150D9F710927F0075
:1002F00010927900DF91CF911F910F910895A82F4F
:10030000B92F80E090E041E050EA60956F5F58F4CB
:100310002D9138EF82279795879510F084279527A0
:100320003F5FC8F3F3CF0895EADF8D939D9308955F
:10033000CF93CFB7CF93849BFECF849B09C0849B80
:1003400007C0849B05C0849B03C0849B01C0A1C0DF
:10035000DF93C0917B00DD27CE57DF4F849B02C027
:10036000DF91EBCF2F930F931F9300B32FEF04FB7D
:1003700020F94F933F9310B34FEF012704FB21F96E
:100380003BE031C04E7F012F10B3216028C0102FF9
:100390004D7F2260000000B329C04B7F2460012FF5
:1003A000000010B32BC010B3477F28602AC04F7ED7
:1003B00000B320612CC04F7D10B320622FC04F7B53
:1003C00000B3206432C0422700B349934FEF0000CE
:1003D000102714FB20F910B31471C9F1297F91F291
:1003E000012704FB21F900B3237F89F2315058F132
:1003F000102714FB22F910B3277E79F2012704FBA2
:1004000023F92F7C81F200B3102714FB24F92F79F4
:1004100071F200C010B3012704FB25F92F7359F2C4
:1004200000C000B3102714FB26F9223040F200C0B0
:1004300010B3012704FB27F9243028F64F772068F2
:1004400010B30000F9CF10E41ABF002717C03B50CB
:100450003195C31BD04010E41ABF0881033CE9F07A
:100460000B34D9F0209179001981110F1213EDCFBF
:10047000093641F10D3211F0013E39F70093800049
:100480003F914F911F910F912F91DF91CAB7C6FDF8
:1004900052CFCF91CFBFCF9118950091800000230C
:1004A00079F310917E00112349F534304AF13093ED
:1004B0007E0000937A0010917B003BE0311B30936B
:1004C0007B001EC000917E000130C4F40AE530912B
:1004D000610034FD17C000936100CEE6D0E016C085
:1004E000052710E002BB1FC0052722C0052727C033
:1004F00005272CC0052710E002BB33C04AE503C026
:1005000042ED01C0432FC4E1D0E032E011B31461E9
:10051000949A02B311BB5F9354E120E820FF0527B2
:1005200002BB279517951C3FD8F620FF0527279576
:1005300002BB17951C3FC0F620FF0527279517958E
:1005400002BB1C3F98F620FF0527279517951C3FF7
:1005500002BB70F600C0499120FF052702BB27951A
:1005600017951C3F38F620FF0527279502BB1795E6
:100570001C3F38F520FF05272795179502BB1C3F28
:1005800010F520FF0527279517951C3F02BBE8F4BF
:10059000242F3A9519F60B7E5F9102BB10917F00D4
:1005A000110FC651D04011F01093790010E41ABF1A
:1005B000006111B31B7E402F4B7E02BB11BB42BBBF
:1005C0005FCF0527D3CF0527D8CF0527DDCFFC0187
:1005D000E199FECF85E290E09FBB8EBBE09A4DB3E0
:1005E00084E690E090937D0080937C0031813323FA
:1005F00039F482818093640083818093650014C004
:100600003130A1F440936400E6E6F0E020E091E0B0
:1006100080818111292B319680E0EE36F80711F0A8
:10062000990FF6CF2093650082E00895832F8250C2
:10063000823088F524812770A22FB0E081E090E01D
:1006400001C0880F2A95EAF7982F9423323039F4A5
:10065000382F342B20E0992331F421E004C0382FC7
:1006600030953423292F8281882381F4AA59BF4FE2
:100670001C92E199FECF85E290E09FBB8EBB3DBB13
:100680000FB6F894E29AE19A0FBE05C0222319F042
:10069000AA59BF4F8C93E199FECF85E290E09FBBB2
:1006A0008EBBE09A3DB3E6E6F0E090E021E0808189
:1006B0008111922B319680E0EE36F80711F0220F6F
:1006C000F6CF932795BB80E008951F93CF93DF93D8
:1006D0002EE088E190E00FB6F894A89581BD0FBE9A
:1006E00021BD8BEF81BB12BA18BA8BEE87BBE199A3
:1006F000FECF85E290E09FBB8EBBE09A3DB3E6E67D
:10070000F0E090E021E080818111922B319680E031
:10071000EE36F80711F0220FF6CF932795BB8C9A8F
:1007200020E040E757E104C0A895CA010197F1F71E
:100730002150D1F78C9885E083BF0E947600789491
:1007400018E0C5E2D0E0A8950E947D0008B600FE42
:10075000FACF88B7816088BF809163008150809311
:1007600063008F5F81F710936300E6E6F0E080811D
:10077000882311F081508083319680E0EE36F807AF
:10078000B1F7E199FECFDFBBCEBBE09A3DB3E6E621
:10079000F0E090E021E080818111922B319680E0A1
:1007A000EE36F80711F0220FF6CF932795BBCBCF8B
:0407B000F894FFCFEB
:0207B400FF5AEA
:00000001FF
